:040000008A11FD2F35
:100EF400831203179E019F01383083160313850064
:100F040080308600F8308700831203138514061698
:100F1400051E8D2F8E2F972F051485100511871010
:100F240007150612861206138A2F851D9A2F9B2FEA
:100F3400A42F0510851005158710071506128612B3
:100F440006138A2F871EA72FA82FB12F05148510EB
:100F54000511871007110616861206138A2F071E1D
:100F6400B42FB52FBE2F0510851005158710071156
:100F74000616861206138A2F871DC12FC22FCB2F68
:100F8400051485100511871007110612861606131D
:100F94008A2F071FCE2FCF2FD82F051085100515A8
:100FA400871007110612861606138A2F871FDB2F58
:100FB400DC2FE52F05148510051187100711061283
:100FC400861206178A2F861FE82FE92FF22F0514A1
:100FD40085100511871407110612861206138A2F2D
:100FE40005108514051187100711061686120613BD
:0C0FF4008A2F8A11002883018A117A2FAD
:08400000FF3FFF3FFF3FFF3FC0
:02400E00D430AC
:00000001FF
